{
  "address": "0x169EA176041831C6e6d7F99E87DD396a5f4a6b89",
  "abi": [
    {
      "inputs": [],
      "stateMutability": "nonpayable",
      "type": "constructor"
    },
    {
      "anonymous": false,
      "inputs": [
        {
          "indexed": true,
          "internalType": "address",
          "name": "owner",
          "type": "address"
        },
        {
          "indexed": true,
          "internalType": "address",
          "name": "spender",
          "type": "address"
        },
        {
          "indexed": false,
          "internalType": "uint256",
          "name": "value",
          "type": "uint256"
        }
      ],
      "name": "Approval",
      "type": "event"
    },
    {
      "anonymous": false,
      "inputs": [
        {
          "indexed": true,
          "internalType": "address",
          "name": "delegator",
          "type": "address"
        },
        {
          "indexed": true,
          "internalType": "address",
          "name": "fromDelegate",
          "type": "address"
        },
        {
          "indexed": true,
          "internalType": "address",
          "name": "toDelegate",
          "type": "address"
        }
      ],
      "name": "DelegateChanged",
      "type": "event"
    },
    {
      "anonymous": false,
      "inputs": [
        {
          "indexed": true,
          "internalType": "address",
          "name": "delegate",
          "type": "address"
        },
        {
          "indexed": false,
          "internalType": "uint256",
          "name": "previousBalance",
          "type": "uint256"
        },
        {
          "indexed": false,
          "internalType": "uint256",
          "name": "newBalance",
          "type": "uint256"
        }
      ],
      "name": "DelegateVotesChanged",
      "type": "event"
    },
    {
      "anonymous": false,
      "inputs": [
        {
          "indexed": true,
          "internalType": "address",
          "name": "previousOwner",
          "type": "address"
        },
        {
          "indexed": true,
          "internalType": "address",
          "name": "newOwner",
          "type": "address"
        }
      ],
      "name": "OwnershipTransferred",
      "type": "event"
    },
    {
      "anonymous": false,
      "inputs": [
        {
          "indexed": true,
          "internalType": "address",
          "name": "from",
          "type": "address"
        },
        {
          "indexed": true,
          "internalType": "address",
          "name": "to",
          "type": "address"
        },
        {
          "indexed": false,
          "internalType": "uint256",
          "name": "value",
          "type": "uint256"
        }
      ],
      "name": "Transfer",
      "type": "event"
    },
    {
      "inputs": [],
      "name": "DOMAIN_SEPARATOR",
      "outputs": [
        {
          "internalType": "bytes32",
          "name": "",
          "type": "bytes32"
        }
      ],
      "stateMutability": "view",
      "type": "function"
    },
    {
      "inputs": [
        {
          "internalType": "address",
          "name": "owner",
          "type": "address"
        },
        {
          "internalType": "address",
          "name": "spender",
          "type": "address"
        }
      ],
      "name": "allowance",
      "outputs": [
        {
          "internalType": "uint256",
          "name": "",
          "type": "uint256"
        }
      ],
      "stateMutability": "view",
      "type": "function"
    },
    {
      "inputs": [
        {
          "internalType": "address",
          "name": "spender",
          "type": "address"
        },
        {
          "internalType": "uint256",
          "name": "amount",
          "type": "uint256"
        }
      ],
      "name": "approve",
      "outputs": [
        {
          "internalType": "bool",
          "name": "",
          "type": "bool"
        }
      ],
      "stateMutability": "nonpayable",
      "type": "function"
    },
    {
      "inputs": [
        {
          "internalType": "address",
          "name": "account",
          "type": "address"
        }
      ],
      "name": "balanceOf",
      "outputs": [
        {
          "internalType": "uint256",
          "name": "",
          "type": "uint256"
        }
      ],
      "stateMutability": "view",
      "type": "function"
    },
    {
      "inputs": [
        {
          "internalType": "address",
          "name": "account",
          "type": "address"
        },
        {
          "internalType": "uint32",
          "name": "pos",
          "type": "uint32"
        }
      ],
      "name": "checkpoints",
      "outputs": [
        {
          "components": [
            {
              "internalType": "uint32",
              "name": "fromBlock",
              "type": "uint32"
            },
            {
              "internalType": "uint224",
              "name": "votes",
              "type": "uint224"
            }
          ],
          "internalType": "struct ERC20Votes.Checkpoint",
          "name": "",
          "type": "tuple"
        }
      ],
      "stateMutability": "view",
      "type": "function"
    },
    {
      "inputs": [],
      "name": "decimals",
      "outputs": [
        {
          "internalType": "uint8",
          "name": "",
          "type": "uint8"
        }
      ],
      "stateMutability": "view",
      "type": "function"
    },
    {
      "inputs": [
        {
          "internalType": "address",
          "name": "spender",
          "type": "address"
        },
        {
          "internalType": "uint256",
          "name": "subtractedValue",
          "type": "uint256"
        }
      ],
      "name": "decreaseAllowance",
      "outputs": [
        {
          "internalType": "bool",
          "name": "",
          "type": "bool"
        }
      ],
      "stateMutability": "nonpayable",
      "type": "function"
    },
    {
      "inputs": [
        {
          "internalType": "address",
          "name": "delegatee",
          "type": "address"
        }
      ],
      "name": "delegate",
      "outputs": [],
      "stateMutability": "nonpayable",
      "type": "function"
    },
    {
      "inputs": [
        {
          "internalType": "address",
          "name": "delegatee",
          "type": "address"
        },
        {
          "internalType": "uint256",
          "name": "nonce",
          "type": "uint256"
        },
        {
          "internalType": "uint256",
          "name": "expiry",
          "type": "uint256"
        },
        {
          "internalType": "uint8",
          "name": "v",
          "type": "uint8"
        },
        {
          "internalType": "bytes32",
          "name": "r",
          "type": "bytes32"
        },
        {
          "internalType": "bytes32",
          "name": "s",
          "type": "bytes32"
        }
      ],
      "name": "delegateBySig",
      "outputs": [],
      "stateMutability": "nonpayable",
      "type": "function"
    },
    {
      "inputs": [
        {
          "internalType": "address",
          "name": "account",
          "type": "address"
        }
      ],
      "name": "delegates",
      "outputs": [
        {
          "internalType": "address",
          "name": "",
          "type": "address"
        }
      ],
      "stateMutability": "view",
      "type": "function"
    },
    {
      "inputs": [
        {
          "internalType": "uint256",
          "name": "blockNumber",
          "type": "uint256"
        }
      ],
      "name": "getPastTotalSupply",
      "outputs": [
        {
          "internalType": "uint256",
          "name": "",
          "type": "uint256"
        }
      ],
      "stateMutability": "view",
      "type": "function"
    },
    {
      "inputs": [
        {
          "internalType": "address",
          "name": "account",
          "type": "address"
        },
        {
          "internalType": "uint256",
          "name": "blockNumber",
          "type": "uint256"
        }
      ],
      "name": "getPastVotes",
      "outputs": [
        {
          "internalType": "uint256",
          "name": "",
          "type": "uint256"
        }
      ],
      "stateMutability": "view",
      "type": "function"
    },
    {
      "inputs": [
        {
          "internalType": "address",
          "name": "account",
          "type": "address"
        }
      ],
      "name": "getVotes",
      "outputs": [
        {
          "internalType": "uint256",
          "name": "",
          "type": "uint256"
        }
      ],
      "stateMutability": "view",
      "type": "function"
    },
    {
      "inputs": [
        {
          "internalType": "address",
          "name": "spender",
          "type": "address"
        },
        {
          "internalType": "uint256",
          "name": "addedValue",
          "type": "uint256"
        }
      ],
      "name": "increaseAllowance",
      "outputs": [
        {
          "internalType": "bool",
          "name": "",
          "type": "bool"
        }
      ],
      "stateMutability": "nonpayable",
      "type": "function"
    },
    {
      "inputs": [
        {
          "internalType": "address",
          "name": "_to",
          "type": "address"
        },
        {
          "internalType": "uint256",
          "name": "_amount",
          "type": "uint256"
        }
      ],
      "name": "mint",
      "outputs": [],
      "stateMutability": "nonpayable",
      "type": "function"
    },
    {
      "inputs": [],
      "name": "name",
      "outputs": [
        {
          "internalType": "string",
          "name": "",
          "type": "string"
        }
      ],
      "stateMutability": "view",
      "type": "function"
    },
    {
      "inputs": [
        {
          "internalType": "address",
          "name": "owner",
          "type": "address"
        }
      ],
      "name": "nonces",
      "outputs": [
        {
          "internalType": "uint256",
          "name": "",
          "type": "uint256"
        }
      ],
      "stateMutability": "view",
      "type": "function"
    },
    {
      "inputs": [
        {
          "internalType": "address",
          "name": "account",
          "type": "address"
        }
      ],
      "name": "numCheckpoints",
      "outputs": [
        {
          "internalType": "uint32",
          "name": "",
          "type": "uint32"
        }
      ],
      "stateMutability": "view",
      "type": "function"
    },
    {
      "inputs": [],
      "name": "owner",
      "outputs": [
        {
          "internalType": "address",
          "name": "",
          "type": "address"
        }
      ],
      "stateMutability": "view",
      "type": "function"
    },
    {
      "inputs": [
        {
          "internalType": "address",
          "name": "owner",
          "type": "address"
        },
        {
          "internalType": "address",
          "name": "spender",
          "type": "address"
        },
        {
          "internalType": "uint256",
          "name": "value",
          "type": "uint256"
        },
        {
          "internalType": "uint256",
          "name": "deadline",
          "type": "uint256"
        },
        {
          "internalType": "uint8",
          "name": "v",
          "type": "uint8"
        },
        {
          "internalType": "bytes32",
          "name": "r",
          "type": "bytes32"
        },
        {
          "internalType": "bytes32",
          "name": "s",
          "type": "bytes32"
        }
      ],
      "name": "permit",
      "outputs": [],
      "stateMutability": "nonpayable",
      "type": "function"
    },
    {
      "inputs": [],
      "name": "renounceOwnership",
      "outputs": [],
      "stateMutability": "nonpayable",
      "type": "function"
    },
    {
      "inputs": [],
      "name": "symbol",
      "outputs": [
        {
          "internalType": "string",
          "name": "",
          "type": "string"
        }
      ],
      "stateMutability": "view",
      "type": "function"
    },
    {
      "inputs": [],
      "name": "totalSupply",
      "outputs": [
        {
          "internalType": "uint256",
          "name": "",
          "type": "uint256"
        }
      ],
      "stateMutability": "view",
      "type": "function"
    },
    {
      "inputs": [
        {
          "internalType": "address",
          "name": "recipient",
          "type": "address"
        },
        {
          "internalType": "uint256",
          "name": "amount",
          "type": "uint256"
        }
      ],
      "name": "transfer",
      "outputs": [
        {
          "internalType": "bool",
          "name": "",
          "type": "bool"
        }
      ],
      "stateMutability": "nonpayable",
      "type": "function"
    },
    {
      "inputs": [
        {
          "internalType": "address",
          "name": "sender",
          "type": "address"
        },
        {
          "internalType": "address",
          "name": "recipient",
          "type": "address"
        },
        {
          "internalType": "uint256",
          "name": "amount",
          "type": "uint256"
        }
      ],
      "name": "transferFrom",
      "outputs": [
        {
          "internalType": "bool",
          "name": "",
          "type": "bool"
        }
      ],
      "stateMutability": "nonpayable",
      "type": "function"
    },
    {
      "inputs": [
        {
          "internalType": "address",
          "name": "newOwner",
          "type": "address"
        }
      ],
      "name": "transferOwnership",
      "outputs": [],
      "stateMutability": "nonpayable",
      "type": "function"
    }
  ],
  "transactionHash": "0xe13f3a923747a5de1518a84424a80e3a2fbecdd955a46ad07fd504647e55410b",
  "args": [],
  "solcInputHash": "fa9efa90a4df5163172cb0d9bcc3aed2",
  "bytecode": "0x6101406040527f6e71edae12b1b97f4d1f60370fef10105fa2faae0126114a169c64845d6126c9610120908152503480156200003a57600080fd5b506040518060400160405280600781526020017f4269747269656c00000000000000000000000000000000000000000000000000815250806040518060400160405280600181526020017f31000000000000000000000000000000000000000000000000000000000000008152506040518060400160405280600781526020017f4269747269656c000000000000000000000000000000000000000000000000008152506040518060400160405280600381526020017f425452000000000000000000000000000000000000000000000000000000000081525081600390805190602001906200012c929190620002f6565b50806004908051906020019062000145929190620002f6565b50505060008280519060200120905060008280519060200120905060007f8b73c3c69bb8fe3d512ecc4cf759cc79239f7b179b0ffacaa9a75d522b39400f90508260c081815250508160e081815250504660a08181525050620001b0818484620001ec60201b60201c565b60808181525050806101008181525050505050505050620001e6620001da6200022860201b60201c565b6200023060201b60201c565b620004e3565b6000838383463060405160200162000209959493929190620003d9565b6040516020818303038152906040528051906020012090509392505050565b600033905090565b6000600960009054906101000a900473ffffffffffffffffffffffffffffffffffffffff16905081600960006101000a81548173ffffffffffffffffffffffffffffffffffffffff021916908373ffffffffffffffffffffffffffffffffffffffff1602179055508173ffffffffffffffffffffffffffffffffffffffff168173ffffffffffffffffffffffffffffffffffffffff167f8be0079c531659141344cd1fd0a4f28419497f9722a3daafe3b4186f6b6457e060405160405180910390a35050565b82805462000304906200047e565b90600052602060002090601f01602090048101928262000328576000855562000374565b82601f106200034357805160ff191683800117855562000374565b8280016001018555821562000374579182015b828111156200037357825182559160200191906001019062000356565b5b50905062000383919062000387565b5090565b5b80821115620003a257600081600090555060010162000388565b5090565b620003b18162000436565b82525050565b620003c2816200044a565b82525050565b620003d38162000474565b82525050565b600060a082019050620003f06000830188620003b7565b620003ff6020830187620003b7565b6200040e6040830186620003b7565b6200041d6060830185620003c8565b6200042c6080830184620003a6565b9695505050505050565b6000620004438262000454565b9050919050565b6000819050919050565b600073ffffffffffffffffffffffffffffffffffffffff82169050919050565b6000819050919050565b600060028204905060018216806200049757607f821691505b60208210811415620004ae57620004ad620004b4565b5b50919050565b7f4e487b7100000000000000000000000000000000000000000000000000000000600052602260045260246000fd5b60805160a05160c05160e0516101005161012051613eb1620005336000396000610f9f015260006117fa0152600061183c0152600061181b015260006117a7015260006117cf0152613eb16000f3fe608060405234801561001057600080fd5b506004361061018e5760003560e01c8063715018a6116100de578063a457c2d711610097578063d505accf11610071578063d505accf146104e5578063dd62ed3e14610501578063f1127ed814610531578063f2fde38b146105615761018e565b8063a457c2d714610469578063a9059cbb14610499578063c3cda520146104c95761018e565b8063715018a6146103935780637ecebe001461039d5780638da5cb5b146103cd5780638e539e8c146103eb57806395d89b411461041b5780639ab24eb0146104395761018e565b8063395093511161014b578063587cde1e11610125578063587cde1e146102e75780635c19a95c146103175780636fcfff451461033357806370a08231146103635761018e565b8063395093511461026b5780633a46b1a81461029b57806340c10f19146102cb5761018e565b806306fdde0314610193578063095ea7b3146101b157806318160ddd146101e157806323b872dd146101ff578063313ce5671461022f5780633644e5151461024d575b600080fd5b61019b61057d565b6040516101a8919061326e565b60405180910390f35b6101cb60048036038101906101c69190612b62565b61060f565b6040516101d891906130fa565b60405180910390f35b6101e961062d565b6040516101f6919061356b565b60405180910390f35b61021960048036038101906102149190612a75565b610637565b60405161022691906130fa565b60405180910390f35b61023761072f565b60405161024491906135ca565b60405180910390f35b610255610738565b6040516102629190613115565b60405180910390f35b61028560048036038101906102809190612b62565b610747565b60405161029291906130fa565b60405180910390f35b6102b560048036038101906102b09190612b62565b6107f3565b6040516102c2919061356b565b60405180910390f35b6102e560048036038101906102e09190612b62565b610887565b005b61030160048036038101906102fc9190612a10565b610911565b60405161030e91906130df565b60405180910390f35b610331600480360381019061032c9190612a10565b61097a565b005b61034d60048036038101906103489190612a10565b61098e565b60405161035a91906135af565b60405180910390f35b61037d60048036038101906103789190612a10565b6109e2565b60405161038a919061356b565b60405180910390f35b61039b610a2a565b005b6103b760048036038101906103b29190612a10565b610ab2565b6040516103c4919061356b565b60405180910390f35b6103d5610b02565b6040516103e291906130df565b60405180910390f35b61040560048036038101906104009190612c63565b610b2c565b604051610412919061356b565b60405180910390f35b610423610b82565b604051610430919061326e565b60405180910390f35b610453600480360381019061044e9190612a10565b610c14565b604051610460919061356b565b60405180910390f35b610483600480360381019061047e9190612b62565b610d4b565b60405161049091906130fa565b60405180910390f35b6104b360048036038101906104ae9190612b62565b610e36565b6040516104c091906130fa565b60405180910390f35b6104e360048036038101906104de9190612b9e565b610e54565b005b6104ff60048036038101906104fa9190612ac4565b610f58565b005b61051b60048036038101906105169190612a39565b61109a565b604051610528919061356b565b60405180910390f35b61054b60048036038101906105469190612c27565b611121565b6040516105589190613550565b60405180910390f35b61057b60048036038101906105769190612a10565b611257565b005b60606003805461058c90613791565b80601f01602080910402602001604051908101604052809291908181526020018280546105b890613791565b80156106055780601f106105da57610100808354040283529160200191610605565b820191906000526020600020905b8154815290600101906020018083116105e857829003601f168201915b5050505050905090565b600061062361061c61134f565b8484611357565b6001905092915050565b6000600254905090565b6000610644848484611522565b6000600160008673ffffffffffffffffffffffffffffffffffffffff1673ffffffffffffffffffffffffffffffffffffffff168152602001908152602001600020600061068f61134f565b73ffffffffffffffffffffffffffffffffffffffff1673ffffffffffffffffffffffffffffffffffffffff1681526020019081526020016000205490508281101561070f576040517f08c379a000000000000000000000000000000000000000000000000000000000815260040161070690613430565b60405180910390fd5b6107238561071b61134f565b858403611357565b60019150509392505050565b60006012905090565b60006107426117a3565b905090565b60006107e961075461134f565b84846001600061076261134f565b73ffffffffffffffffffffffffffffffffffffffff1673ffffffffffffffffffffffffffffffffffffffff16815260200190815260200160002060008873ffffffffffffffffffffffffffffffffffffffff1673ffffffffffffffffffffffffffffffffffffffff168152602001908152602001600020546107e4919061360c565b611357565b6001905092915050565b6000438210610837576040517f08c379a000000000000000000000000000000000000000000000000000000000815260040161082e906132d0565b60405180910390fd5b61087f600760008573ffffffffffffffffffffffffffffffffffffffff1673ffffffffffffffffffffffffffffffffffffffff16815260200190815260200160002083611866565b905092915050565b61088f61134f565b73ffffffffffffffffffffffffffffffffffffffff166108ad610b02565b73ffffffffffffffffffffffffffffffffffffffff1614610903576040517f08c379a00000000000000000000000000000000000000000000000000000000081526004016108fa90613470565b60405180910390fd5b61090d82826119be565b5050565b6000600660008373ffffffffffffffffffffffffffffffffffffffff1673ffffffffffffffffffffffffffffffffffffffff16815260200190815260200160002060009054906101000a900473ffffffffffffffffffffffffffffffffffffffff169050919050565b61098b61098561134f565b82611a4b565b50565b60006109db600760008473ffffffffffffffffffffffffffffffffffffffff1673ffffffffffffffffffffffffffffffffffffffff16815260200190815260200160002080549050611b65565b9050919050565b60008060008373ffffffffffffffffffffffffffffffffffffffff1673ffffffffffffffffffffffffffffffffffffffff168152602001908152602001600020549050919050565b610a3261134f565b73ffffffffffffffffffffffffffffffffffffffff16610a50610b02565b73ffffffffffffffffffffffffffffffffffffffff1614610aa6576040517f08c379a0000000000000000000000000000000000000000000000000000000008152600401610a9d90613470565b60405180910390fd5b610ab06000611bb8565b565b6000610afb600560008473ffffffffffffffffffffffffffffffffffffffff1673ffffffffffffffffffffffffffffffffffffffff168152602001908152602001600020611c7e565b9050919050565b6000600960009054906101000a900473ffffffffffffffffffffffffffffffffffffffff16905090565b6000438210610b70576040517f08c379a0000000000000000000000000000000000000000000000000000000008152600401610b67906132d0565b60405180910390fd5b610b7b600883611866565b9050919050565b606060048054610b9190613791565b80601f0160208091040260200160405190810160405280929190818152602001828054610bbd90613791565b8015610c0a5780601f10610bdf57610100808354040283529160200191610c0a565b820191906000526020600020905b815481529060010190602001808311610bed57829003601f168201915b5050505050905090565b600080600760008473ffffffffffffffffffffffffffffffffffffffff1673ffffffffffffffffffffffffffffffffffffffff16815260200190815260200160002080549050905060008114610d2257600760008473ffffffffffffffffffffffffffffffffffffffff1673ffffffffffffffffffffffffffffffffffffffff168152602001908152602001600020600182610cb09190613693565b81548110610ce7577f4e487b7100000000000000000000000000000000000000000000000000000000600052603260045260246000fd5b9060005260206000200160000160049054906101000a90047bffffffffffffffffffffffffffffffffffffffffffffffffffffffff16610d25565b60005b7bffffffffffffffffffffffffffffffffffffffffffffffffffffffff16915050919050565b60008060016000610d5a61134f565b73ffffffffffffffffffffffffffffffffffffffff1673ffffffffffffffffffffffffffffffffffffffff16815260200190815260200160002060008573ffffffffffffffffffffffffffffffffffffffff1673ffffffffffffffffffffffffffffffffffffffff16815260200190815260200160002054905082811015610e17576040517f08c379a0000000000000000000000000000000000000000000000000000000008152600401610e0e90613510565b60405180910390fd5b610e2b610e2261134f565b85858403611357565b600191505092915050565b6000610e4a610e4361134f565b8484611522565b6001905092915050565b83421115610e97576040517f08c379a0000000000000000000000000000000000000000000000000000000008152600401610e8e906132f0565b60405180910390fd5b6000610ef9610ef17fe48329057bfd03d55e49b547132e39cffd9c1820ad7b9d4c5307691425d15adf898989604051602001610ed69493929190613191565b60405160208183030381529060405280519060200120611c8c565b858585611ca6565b9050610f0481611cd1565b8614610f45576040517f08c379a0000000000000000000000000000000000000000000000000000000008152600401610f3c90613330565b60405180910390fd5b610f4f8188611a4b565b50505050505050565b83421115610f9b576040517f08c379a0000000000000000000000000000000000000000000000000000000008152600401610f9290613390565b60405180910390fd5b60007f0000000000000000000000000000000000000000000000000000000000000000888888610fca8c611cd1565b89604051602001610fe096959493929190613130565b604051602081830303815290604052805190602001209050600061100382611c8c565b9050600061101382878787611ca6565b90508973ffffffffffffffffffffffffffffffffffffffff168173ffffffffffffffffffffffffffffffffffffffff1614611083576040517f08c379a000000000000000000000000000000000000000000000000000000000815260040161107a90613410565b60405180910390fd5b61108e8a8a8a611357565b50505050505050505050565b6000600160008473ffffffffffffffffffffffffffffffffffffffff1673ffffffffffffffffffffffffffffffffffffffff16815260200190815260200160002060008373ffffffffffffffffffffffffffffffffffffffff1673ffffffffffffffffffffffffffffffffffffffff16815260200190815260200160002054905092915050565b611129612969565b600760008473ffffffffffffffffffffffffffffffffffffffff1673ffffffffffffffffffffffffffffffffffffffff1681526020019081526020016000208263ffffffff16815481106111a6577f4e487b7100000000000000000000000000000000000000000000000000000000600052603260045260246000fd5b906000526020600020016040518060400160405290816000820160009054906101000a900463ffffffff1663ffffffff1663ffffffff1681526020016000820160049054906101000a90047bffffffffffffffffffffffffffffffffffffffffffffffffffffffff167bffffffffffffffffffffffffffffffffffffffffffffffffffffffff167bffffffffffffffffffffffffffffffffffffffffffffffffffffffff1681525050905092915050565b61125f61134f565b73ffffffffffffffffffffffffffffffffffffffff1661127d610b02565b73ffffffffffffffffffffffffffffffffffffffff16146112d3576040517f08c379a00000000000000000000000000000000000000000000000000000000081526004016112ca90613470565b60405180910390fd5b600073ffffffffffffffffffffffffffffffffffffffff168173ffffffffffffffffffffffffffffffffffffffff161415611343576040517f08c379a000000000000000000000000000000000000000000000000000000000815260040161133a90613350565b60405180910390fd5b61134c81611bb8565b50565b600033905090565b600073ffffffffffffffffffffffffffffffffffffffff168373ffffffffffffffffffffffffffffffffffffffff1614156113c7576040517f08c379a00000000000000000000000000000000000000000000000000000000081526004016113be906134f0565b60405180910390fd5b600073ffffffffffffffffffffffffffffffffffffffff168273ffffffffffffffffffffffffffffffffffffffff161415611437576040517f08c379a000000000000000000000000000000000000000000000000000000000815260040161142e90613370565b60405180910390fd5b80600160008573ffffffffffffffffffffffffffffffffffffffff1673ffffffffffffffffffffffffffffffffffffffff16815260200190815260200160002060008473ffffffffffffffffffffffffffffffffffffffff1673ffffffffffffffffffffffffffffffffffffffff168152602001908152602001600020819055508173ffffffffffffffffffffffffffffffffffffffff168373ffffffffffffffffffffffffffffffffffffffff167f8c5be1e5ebec7d5bd14f71427d1e84f3dd0314c0f7b2291e5b200ac8c7c3b92583604051611515919061356b565b60405180910390a3505050565b600073ffffffffffffffffffffffffffffffffffffffff168373ffffffffffffffffffffffffffffffffffffffff161415611592576040517f08c379a0000000000000000000000000000000000000000000000000000000008152600401611589906134b0565b60405180910390fd5b600073ffffffffffffffffffffffffffffffffffffffff168273ffffffffffffffffffffffffffffffffffffffff161415611602576040517f08c379a00000000000000000000000000000000000000000000000000000000081526004016115f9906132b0565b60405180910390fd5b61160d838383611d2f565b60008060008573ffffffffffffffffffffffffffffffffffffffff1673ffffffffffffffffffffffffffffffffffffffff16815260200190815260200160002054905081811015611693576040517f08c379a000000000000000000000000000000000000000000000000000000000815260040161168a906133b0565b60405180910390fd5b8181036000808673ffffffffffffffffffffffffffffffffffffffff1673ffffffffffffffffffffffffffffffffffffffff16815260200190815260200160002081905550816000808573ffffffffffffffffffffffffffffffffffffffff1673ffffffffffffffffffffffffffffffffffffffff1681526020019081526020016000206000828254611726919061360c565b925050819055508273ffffffffffffffffffffffffffffffffffffffff168473ffffffffffffffffffffffffffffffffffffffff167fddf252ad1be2c89b69c2b068fc378daa952ba7f163c4a11628f55a4df523b3ef8460405161178a919061356b565b60405180910390a361179d848484611d34565b50505050565b60007f00000000000000000000000000000000000000000000000000000000000000004614156117f5577f00000000000000000000000000000000000000000000000000000000000000009050611863565b6118607f00000000000000000000000000000000000000000000000000000000000000007f00000000000000000000000000000000000000000000000000000000000000007f0000000000000000000000000000000000000000000000000000000000000000611d5f565b90505b90565b6000808380549050905060005b8181101561190b5760006118878284611d99565b9050848682815481106118c3577f4e487b7100000000000000000000000000000000000000000000000000000000600052603260045260246000fd5b9060005260206000200160000160009054906101000a900463ffffffff1663ffffffff1611156118f557809250611905565b600181611902919061360c565b91505b50611873565b6000821461199357846001836119219190613693565b81548110611958577f4e487b7100000000000000000000000000000000000000000000000000000000600052603260045260246000fd5b9060005260206000200160000160049054906101000a90047bffffffffffffffffffffffffffffffffffffffffffffffffffffffff16611996565b60005b7bffffffffffffffffffffffffffffffffffffffffffffffffffffffff169250505092915050565b6119c88282611dbf565b6119d0611f1f565b7bffffffffffffffffffffffffffffffffffffffffffffffffffffffff166119f661062d565b1115611a37576040517f08c379a0000000000000000000000000000000000000000000000000000000008152600401611a2e90613450565b60405180910390fd5b611a456008611f4383611f59565b50505050565b6000611a5683610911565b90506000611a63846109e2565b905082600660008673ffffffffffffffffffffffffffffffffffffffff1673ffffffffffffffffffffffffffffffffffffffff16815260200190815260200160002060006101000a81548173ffffffffffffffffffffffffffffffffffffffff021916908373ffffffffffffffffffffffffffffffffffffffff1602179055508273ffffffffffffffffffffffffffffffffffffffff168273ffffffffffffffffffffffffffffffffffffffff168573ffffffffffffffffffffffffffffffffffffffff167f3134e8a2e6d97e929a7e54011ea5485d7d196dd5f0ba4d4ef95803e8e3fc257f60405160405180910390a4611b5f828483612243565b50505050565b600063ffffffff8016821115611bb0576040517f08c379a0000000000000000000000000000000000000000000000000000000008152600401611ba7906134d0565b60405180910390fd5b819050919050565b6000600960009054906101000a900473ffffffffffffffffffffffffffffffffffffffff16905081600960006101000a81548173ffffffffffffffffffffffffffffffffffffffff021916908373ffffffffffffffffffffffffffffffffffffffff1602179055508173ffffffffffffffffffffffffffffffffffffffff168173ffffffffffffffffffffffffffffffffffffffff167f8be0079c531659141344cd1fd0a4f28419497f9722a3daafe3b4186f6b6457e060405160405180910390a35050565b600081600001549050919050565b6000611c9f611c996117a3565b8361243c565b9050919050565b6000806000611cb78787878761246f565b91509150611cc48161257c565b8192505050949350505050565b600080600560008473ffffffffffffffffffffffffffffffffffffffff1673ffffffffffffffffffffffffffffffffffffffff1681526020019081526020016000209050611d1e81611c7e565b9150611d29816128cd565b50919050565b505050565b611d3f8383836128e3565b611d5a611d4b84610911565b611d5484610911565b83612243565b505050565b60008383834630604051602001611d7a9594939291906131d6565b6040516020818303038152906040528051906020012090509392505050565b60006002828418611daa9190613662565b828416611db7919061360c565b905092915050565b600073ffffffffffffffffffffffffffffffffffffffff168273ffffffffffffffffffffffffffffffffffffffff161415611e2f576040517f08c379a0000000000000000000000000000000000000000000000000000000008152600401611e2690613530565b60405180910390fd5b611e3b60008383611d2f565b8060026000828254611e4d919061360c565b92505081905550806000808473ffffffffffffffffffffffffffffffffffffffff1673ffffffffffffffffffffffffffffffffffffffff1681526020019081526020016000206000828254611ea2919061360c565b925050819055508173ffffffffffffffffffffffffffffffffffffffff16600073ffffffffffffffffffffffffffffffffffffffff167fddf252ad1be2c89b69c2b068fc378daa952ba7f163c4a11628f55a4df523b3ef83604051611f07919061356b565b60405180910390a3611f1b60008383611d34565b5050565b60007bffffffffffffffffffffffffffffffffffffffffffffffffffffffff905090565b60008183611f51919061360c565b905092915050565b60008060008580549050905060008114611fed5785600182611f7b9190613693565b81548110611fb2577f4e487b7100000000000000000000000000000000000000000000000000000000600052603260045260246000fd5b9060005260206000200160000160049054906101000a90047bffffffffffffffffffffffffffffffffffffffffffffffffffffffff16611ff0565b60005b7bffffffffffffffffffffffffffffffffffffffffffffffffffffffff16925061201e83858763ffffffff16565b91506000811180156120975750438660018361203a9190613693565b81548110612071577f4e487b7100000000000000000000000000000000000000000000000000000000600052603260045260246000fd5b9060005260206000200160000160009054906101000a900463ffffffff1663ffffffff16145b1561214a576120a5826128e8565b866001836120b39190613693565b815481106120ea577f4e487b7100000000000000000000000000000000000000000000000000000000600052603260045260246000fd5b9060005260206000200160000160046101000a8154817bffffffffffffffffffffffffffffffffffffffffffffffffffffffff02191690837bffffffffffffffffffffffffffffffffffffffffffffffffffffffff16021790555061223a565b85604051806040016040528061215f43611b65565b63ffffffff168152602001612173856128e8565b7bffffffffffffffffffffffffffffffffffffffffffffffffffffffff168152509080600181540180825580915050600190039060005260206000200160009091909190915060008201518160000160006101000a81548163ffffffff021916908363ffffffff16021790555060208201518160000160046101000a8154817bffffffffffffffffffffffffffffffffffffffffffffffffffffffff02191690837bffffffffffffffffffffffffffffffffffffffffffffffffffffffff16021790555050505b50935093915050565b8173ffffffffffffffffffffffffffffffffffffffff168373ffffffffffffffffffffffffffffffffffffffff161415801561227f5750600081115b1561243757600073ffffffffffffffffffffffffffffffffffffffff168373ffffffffffffffffffffffffffffffffffffffff161461235d57600080612306600760008773ffffffffffffffffffffffffffffffffffffffff1673ffffffffffffffffffffffffffffffffffffffff16815260200190815260200160002061295385611f59565b915091508473ffffffffffffffffffffffffffffffffffffffff167fdec2bacdd2f05b59de34da9b523dff8be42e5e38e818c82fdb0bae774387a7248383604051612352929190613586565b60405180910390a250505b600073ffffffffffffffffffffffffffffffffffffffff168273ffffffffffffffffffffffffffffffffffffffff1614612436576000806123df600760008673ffffffffffffffffffffffffffffffffffffffff1673ffffffffffffffffffffffffffffffffffffffff168152602001908152602001600020611f4385611f59565b915091508373ffffffffffffffffffffffffffffffffffffffff167fdec2bacdd2f05b59de34da9b523dff8be42e5e38e818c82fdb0bae774387a724838360405161242b929190613586565b60405180910390a250505b5b505050565b600082826040516020016124519291906130a8565b60405160208183030381529060405280519060200120905092915050565b6000807f7fffffffffffffffffffffffffffffff5d576e7357a4501ddfe92f46681b20a08360001c11156124aa576000600391509150612573565b601b8560ff16141580156124c25750601c8560ff1614155b156124d4576000600491509150612573565b6000600187878787604051600081526020016040526040516124f99493929190613229565b6020604051602081039080840390855afa15801561251b573d6000803e3d6000fd5b505050602060405103519050600073ffffffffffffffffffffffffffffffffffffffff168173ffffffffffffffffffffffffffffffffffffffff16141561256a57600060019250925050612573565b80600092509250505b94509492505050565b600060048111156125b6577f4e487b7100000000000000000000000000000000000000000000000000000000600052602160045260246000fd5b8160048111156125ef577f4e487b7100000000000000000000000000000000000000000000000000000000600052602160045260246000fd5b14156125fa576128ca565b60016004811115612634577f4e487b7100000000000000000000000000000000000000000000000000000000600052602160045260246000fd5b81600481111561266d577f4e487b7100000000000000000000000000000000000000000000000000000000600052602160045260246000fd5b14156126ae576040517f08c379a00000000000000000000000000000000000000000000000000000000081526004016126a590613290565b60405180910390fd5b600260048111156126e8577f4e487b7100000000000000000000000000000000000000000000000000000000600052602160045260246000fd5b816004811115612721577f4e487b7100000000000000000000000000000000000000000000000000000000600052602160045260246000fd5b1415612762576040517f08c379a000000000000000000000000000000000000000000000000000000000815260040161275990613310565b60405180910390fd5b6003600481111561279c577f4e487b7100000000000000000000000000000000000000000000000000000000600052602160045260246000fd5b8160048111156127d5577f4e487b7100000000000000000000000000000000000000000000000000000000600052602160045260246000fd5b1415612816576040517f08c379a000000000000000000000000000000000000000000000000000000000815260040161280d906133d0565b60405180910390fd5b60048081111561284f577f4e487b7100000000000000000000000000000000000000000000000000000000600052602160045260246000fd5b816004811115612888577f4e487b7100000000000000000000000000000000000000000000000000000000600052602160045260246000fd5b14156128c9576040517f08c379a00000000000000000000000000000000000000000000000000000000081526004016128c0906133f0565b60405180910390fd5b5b50565b6001816000016000828254019250508190555050565b505050565b60007bffffffffffffffffffffffffffffffffffffffffffffffffffffffff801682111561294b576040517f08c379a000000000000000000000000000000000000000000000000000000000815260040161294290613490565b60405180910390fd5b819050919050565b600081836129619190613693565b905092915050565b6040518060400160405280600063ffffffff16815260200160007bffffffffffffffffffffffffffffffffffffffffffffffffffffffff1681525090565b6000813590506129b681613e08565b92915050565b6000813590506129cb81613e1f565b92915050565b6000813590506129e081613e36565b92915050565b6000813590506129f581613e4d565b92915050565b600081359050612a0a81613e64565b92915050565b600060208284031215612a2257600080fd5b6000612a30848285016129a7565b91505092915050565b60008060408385031215612a4c57600080fd5b6000612a5a858286016129a7565b9250506020612a6b858286016129a7565b9150509250929050565b600080600060608486031215612a8a57600080fd5b6000612a98868287016129a7565b9350506020612aa9868287016129a7565b9250506040612aba868287016129d1565b9150509250925092565b600080600080600080600060e0888a031215612adf57600080fd5b6000612aed8a828b016129a7565b9750506020612afe8a828b016129a7565b9650506040612b0f8a828b016129d1565b9550506060612b208a828b016129d1565b9450506080612b318a828b016129fb565b93505060a0612b428a828b016129bc565b92505060c0612b538a828b016129bc565b91505092959891949750929550565b60008060408385031215612b7557600080fd5b6000612b83858286016129a7565b9250506020612b94858286016129d1565b9150509250929050565b60008060008060008060c08789031215612bb757600080fd5b6000612bc589828a016129a7565b9650506020612bd689828a016129d1565b9550506040612be789828a016129d1565b9450506060612bf889828a016129fb565b9350506080612c0989828a016129bc565b92505060a0612c1a89828a016129bc565b9150509295509295509295565b60008060408385031215612c3a57600080fd5b6000612c48858286016129a7565b9250506020612c59858286016129e6565b9150509250929050565b600060208284031215612c7557600080fd5b6000612c83848285016129d1565b91505092915050565b612c95816136c7565b82525050565b612ca4816136d9565b82525050565b612cb3816136e5565b82525050565b612cca612cc5826136e5565b6137c3565b82525050565b6000612cdb826135e5565b612ce581856135f0565b9350612cf581856020860161375e565b612cfe8161385a565b840191505092915050565b6000612d166018836135f0565b9150612d218261386b565b602082019050919050565b6000612d396023836135f0565b9150612d4482613894565b604082019050919050565b6000612d5c601f836135f0565b9150612d67826138e3565b602082019050919050565b6000612d7f601d836135f0565b9150612d8a8261390c565b602082019050919050565b6000612da2601f836135f0565b9150612dad82613935565b602082019050919050565b6000612dc56019836135f0565b9150612dd08261395e565b602082019050919050565b6000612de86026836135f0565b9150612df382613987565b604082019050919050565b6000612e0b6022836135f0565b9150612e16826139d6565b604082019050919050565b6000612e2e600283613601565b9150612e3982613a25565b600282019050919050565b6000612e51601d836135f0565b9150612e5c82613a4e565b602082019050919050565b6000612e746026836135f0565b9150612e7f82613a77565b604082019050919050565b6000612e976022836135f0565b9150612ea282613ac6565b604082019050919050565b6000612eba6022836135f0565b9150612ec582613b15565b604082019050919050565b6000612edd601e836135f0565b9150612ee882613b64565b602082019050919050565b6000612f006028836135f0565b9150612f0b82613b8d565b604082019050919050565b6000612f236030836135f0565b9150612f2e82613bdc565b604082019050919050565b6000612f466020836135f0565b9150612f5182613c2b565b602082019050919050565b6000612f696027836135f0565b9150612f7482613c54565b604082019050919050565b6000612f8c6025836135f0565b9150612f9782613ca3565b604082019050919050565b6000612faf6026836135f0565b9150612fba82613cf2565b604082019050919050565b6000612fd26024836135f0565b9150612fdd82613d41565b604082019050919050565b6000612ff56025836135f0565b915061300082613d90565b604082019050919050565b6000613018601f836135f0565b915061302382613ddf565b602082019050919050565b604082016000820151613044600085018261307b565b506020820151613057602085018261305d565b50505050565b6130668161370f565b82525050565b61307581613737565b82525050565b61308481613741565b82525050565b61309381613741565b82525050565b6130a281613751565b82525050565b60006130b382612e21565b91506130bf8285612cb9565b6020820191506130cf8284612cb9565b6020820191508190509392505050565b60006020820190506130f46000830184612c8c565b92915050565b600060208201905061310f6000830184612c9b565b92915050565b600060208201905061312a6000830184612caa565b92915050565b600060c0820190506131456000830189612caa565b6131526020830188612c8c565b61315f6040830187612c8c565b61316c606083018661306c565b613179608083018561306c565b61318660a083018461306c565b979650505050505050565b60006080820190506131a66000830187612caa565b6131b36020830186612c8c565b6131c0604083018561306c565b6131cd606083018461306c565b95945050505050565b600060a0820190506131eb6000830188612caa565b6131f86020830187612caa565b6132056040830186612caa565b613212606083018561306c565b61321f6080830184612c8c565b9695505050505050565b600060808201905061323e6000830187612caa565b61324b6020830186613099565b6132586040830185612caa565b6132656060830184612caa565b95945050505050565b600060208201905081810360008301526132888184612cd0565b905092915050565b600060208201905081810360008301526132a981612d09565b9050919050565b600060208201905081810360008301526132c981612d2c565b9050919050565b600060208201905081810360008301526132e981612d4f565b9050919050565b6000602082019050818103600083015261330981612d72565b9050919050565b6000602082019050818103600083015261332981612d95565b9050919050565b6000602082019050818103600083015261334981612db8565b9050919050565b6000602082019050818103600083015261336981612ddb565b9050919050565b6000602082019050818103600083015261338981612dfe565b9050919050565b600060208201905081810360008301526133a981612e44565b9050919050565b600060208201905081810360008301526133c981612e67565b9050919050565b600060208201905081810360008301526133e981612e8a565b9050919050565b6000602082019050818103600083015261340981612ead565b9050919050565b6000602082019050818103600083015261342981612ed0565b9050919050565b6000602082019050818103600083015261344981612ef3565b9050919050565b6000602082019050818103600083015261346981612f16565b9050919050565b6000602082019050818103600083015261348981612f39565b9050919050565b600060208201905081810360008301526134a981612f5c565b9050919050565b600060208201905081810360008301526134c981612f7f565b9050919050565b600060208201905081810360008301526134e981612fa2565b9050919050565b6000602082019050818103600083015261350981612fc5565b9050919050565b6000602082019050818103600083015261352981612fe8565b9050919050565b600060208201905081810360008301526135498161300b565b9050919050565b6000604082019050613565600083018461302e565b92915050565b6000602082019050613580600083018461306c565b92915050565b600060408201905061359b600083018561306c565b6135a8602083018461306c565b9392505050565b60006020820190506135c4600083018461308a565b92915050565b60006020820190506135df6000830184613099565b92915050565b600081519050919050565b600082825260208201905092915050565b600081905092915050565b600061361782613737565b915061362283613737565b9250827fffffffffffffffffffffffffffffffffffffffffffffffffffffffffffffffff03821115613657576136566137cd565b5b828201905092915050565b600061366d82613737565b915061367883613737565b925082613688576136876137fc565b5b828204905092915050565b600061369e82613737565b91506136a983613737565b9250828210156136bc576136bb6137cd565b5b828203905092915050565b60006136d2826136ef565b9050919050565b60008115159050919050565b6000819050919050565b600073ffffffffffffffffffffffffffffffffffffffff82169050919050565b60007bffffffffffffffffffffffffffffffffffffffffffffffffffffffff82169050919050565b6000819050919050565b600063ffffffff82169050919050565b600060ff82169050919050565b60005b8381101561377c578082015181840152602081019050613761565b8381111561378b576000848401525b50505050565b600060028204905060018216806137a957607f821691505b602082108114156137bd576137bc61382b565b5b50919050565b6000819050919050565b7f4e487b7100000000000000000000000000000000000000000000000000000000600052601160045260246000fd5b7f4e487b7100000000000000000000000000000000000000000000000000000000600052601260045260246000fd5b7f4e487b7100000000000000000000000000000000000000000000000000000000600052602260045260246000fd5b6000601f19601f8301169050919050565b7f45434453413a20696e76616c6964207369676e61747572650000000000000000600082015250565b7f45524332303a207472616e7366657220746f20746865207a65726f206164647260008201527f6573730000000000000000000000000000000000000000000000000000000000602082015250565b7f4552433230566f7465733a20626c6f636b206e6f7420796574206d696e656400600082015250565b7f4552433230566f7465733a207369676e61747572652065787069726564000000600082015250565b7f45434453413a20696e76616c6964207369676e6174757265206c656e67746800600082015250565b7f4552433230566f7465733a20696e76616c6964206e6f6e636500000000000000600082015250565b7f4f776e61626c653a206e6577206f776e657220697320746865207a65726f206160008201527f6464726573730000000000000000000000000000000000000000000000000000602082015250565b7f45524332303a20617070726f766520746f20746865207a65726f20616464726560008201527f7373000000000000000000000000000000000000000000000000000000000000602082015250565b7f1901000000000000000000000000000000000000000000000000000000000000600082015250565b7f45524332305065726d69743a206578706972656420646561646c696e65000000600082015250565b7f45524332303a207472616e7366657220616d6f756e742065786365656473206260008201527f616c616e63650000000000000000000000000000000000000000000000000000602082015250565b7f45434453413a20696e76616c6964207369676e6174757265202773272076616c60008201527f7565000000000000000000000000000000000000000000000000000000000000602082015250565b7f45434453413a20696e76616c6964207369676e6174757265202776272076616c60008201527f7565000000000000000000000000000000000000000000000000000000000000602082015250565b7f45524332305065726d69743a20696e76616c6964207369676e61747572650000600082015250565b7f45524332303a207472616e7366657220616d6f756e742065786365656473206160008201527f6c6c6f77616e6365000000000000000000000000000000000000000000000000602082015250565b7f4552433230566f7465733a20746f74616c20737570706c79207269736b73206f60008201527f766572666c6f77696e6720766f74657300000000000000000000000000000000602082015250565b7f4f776e61626c653a2063616c6c6572206973206e6f7420746865206f776e6572600082015250565b7f53616665436173743a2076616c756520646f65736e27742066697420696e203260008201527f3234206269747300000000000000000000000000000000000000000000000000602082015250565b7f45524332303a207472616e736665722066726f6d20746865207a65726f20616460008201527f6472657373000000000000000000000000000000000000000000000000000000602082015250565b7f53616665436173743a2076616c756520646f65736e27742066697420696e203360008201527f3220626974730000000000000000000000000000000000000000000000000000602082015250565b7f45524332303a20617070726f76652066726f6d20746865207a65726f2061646460008201527f7265737300000000000000000000000000000000000000000000000000000000602082015250565b7f45524332303a2064656372656173656420616c6c6f77616e63652062656c6f7760008201527f207a65726f000000000000000000000000000000000000000000000000000000602082015250565b7f45524332303a206d696e7420746f20746865207a65726f206164647265737300600082015250565b613e11816136c7565b8114613e1c57600080fd5b50565b613e28816136e5565b8114613e3357600080fd5b50565b613e3f81613737565b8114613e4a57600080fd5b50565b613e5681613741565b8114613e6157600080fd5b50565b613e6d81613751565b8114613e7857600080fd5b5056fea26469706673582212209731a51ee6399aace2a6c2413ce6fd9883695d25255dccd1bf5844a4990589c764736f6c63430008040033",
  "devdoc": {
    "kind": "dev",
    "methods": {
      "DOMAIN_SEPARATOR()": {
        "details": "See {IERC20Permit-DOMAIN_SEPARATOR}."
      },
      "allowance(address,address)": {
        "details": "See {IERC20-allowance}."
      },
      "approve(address,uint256)": {
        "details": "See {IERC20-approve}. Requirements: - `spender` cannot be the zero address."
      },
      "balanceOf(address)": {
        "details": "See {IERC20-balanceOf}."
      },
      "checkpoints(address,uint32)": {
        "details": "Get the `pos`-th checkpoint for `account`."
      },
      "decimals()": {
        "details": "Returns the number of decimals used to get its user representation. For example, if `decimals` equals `2`, a balance of `505` tokens should be displayed to a user as `5.05` (`505 / 10 ** 2`). Tokens usually opt for a value of 18, imitating the relationship between Ether and Wei. This is the value {ERC20} uses, unless this function is overridden; NOTE: This information is only used for _display_ purposes: it in no way affects any of the arithmetic of the contract, including {IERC20-balanceOf} and {IERC20-transfer}."
      },
      "decreaseAllowance(address,uint256)": {
        "details": "Atomically decreases the allowance granted to `spender` by the caller. This is an alternative to {approve} that can be used as a mitigation for problems described in {IERC20-approve}. Emits an {Approval} event indicating the updated allowance. Requirements: - `spender` cannot be the zero address. - `spender` must have allowance for the caller of at least `subtractedValue`."
      },
      "delegate(address)": {
        "details": "Delegate votes from the sender to `delegatee`."
      },
      "delegateBySig(address,uint256,uint256,uint8,bytes32,bytes32)": {
        "details": "Delegates votes from signer to `delegatee`"
      },
      "delegates(address)": {
        "details": "Get the address `account` is currently delegating to."
      },
      "getPastTotalSupply(uint256)": {
        "details": "Retrieve the `totalSupply` at the end of `blockNumber`. Note, this value is the sum of all balances. It is but NOT the sum of all the delegated votes! Requirements: - `blockNumber` must have been already mined"
      },
      "getPastVotes(address,uint256)": {
        "details": "Retrieve the number of votes for `account` at the end of `blockNumber`. Requirements: - `blockNumber` must have been already mined"
      },
      "getVotes(address)": {
        "details": "Gets the current votes balance for `account`"
      },
      "increaseAllowance(address,uint256)": {
        "details": "Atomically increases the allowance granted to `spender` by the caller. This is an alternative to {approve} that can be used as a mitigation for problems described in {IERC20-approve}. Emits an {Approval} event indicating the updated allowance. Requirements: - `spender` cannot be the zero address."
      },
      "name()": {
        "details": "Returns the name of the token."
      },
      "nonces(address)": {
        "details": "See {IERC20Permit-nonces}."
      },
      "numCheckpoints(address)": {
        "details": "Get number of checkpoints for `account`."
      },
      "owner()": {
        "details": "Returns the address of the current owner."
      },
      "permit(address,address,uint256,uint256,uint8,bytes32,bytes32)": {
        "details": "See {IERC20Permit-permit}."
      },
      "renounceOwnership()": {
        "details": "Leaves the contract without owner. It will not be possible to call `onlyOwner` functions anymore. Can only be called by the current owner. NOTE: Renouncing ownership will leave the contract without an owner, thereby removing any functionality that is only available to the owner."
      },
      "symbol()": {
        "details": "Returns the symbol of the token, usually a shorter version of the name."
      },
      "totalSupply()": {
        "details": "See {IERC20-totalSupply}."
      },
      "transfer(address,uint256)": {
        "details": "See {IERC20-transfer}. Requirements: - `recipient` cannot be the zero address. - the caller must have a balance of at least `amount`."
      },
      "transferFrom(address,address,uint256)": {
        "details": "See {IERC20-transferFrom}. Emits an {Approval} event indicating the updated allowance. This is not required by the EIP. See the note at the beginning of {ERC20}. Requirements: - `sender` and `recipient` cannot be the zero address. - `sender` must have a balance of at least `amount`. - the caller must have allowance for ``sender``'s tokens of at least `amount`."
      },
      "transferOwnership(address)": {
        "details": "Transfers ownership of the contract to a new account (`newOwner`). Can only be called by the current owner."
      }
    },
    "version": 1
  },
  "userdoc": {
    "kind": "user",
    "methods": {
      "mint(address,uint256)": {
        "notice": "Creates `_amount` token to `_to`. Must only be called by the owner (MasterChef)."
      }
    },
    "version": 1
  },
  "storageLayout": {
    "storage": [
      {
        "astId": 3071,
        "contract": "contracts/BitrielToken.sol:BitrielToken",
        "label": "_balances",
        "offset": 0,
        "slot": "0",
        "type": "t_mapping(t_address,t_uint256)"
      },
      {
        "astId": 3077,
        "contract": "contracts/BitrielToken.sol:BitrielToken",
        "label": "_allowances",
        "offset": 0,
        "slot": "1",
        "type": "t_mapping(t_address,t_mapping(t_address,t_uint256))"
      },
      {
        "astId": 3079,
        "contract": "contracts/BitrielToken.sol:BitrielToken",
        "label": "_totalSupply",
        "offset": 0,
        "slot": "2",
        "type": "t_uint256"
      },
      {
        "astId": 3081,
        "contract": "contracts/BitrielToken.sol:BitrielToken",
        "label": "_name",
        "offset": 0,
        "slot": "3",
        "type": "t_string_storage"
      },
      {
        "astId": 3083,
        "contract": "contracts/BitrielToken.sol:BitrielToken",
        "label": "_symbol",
        "offset": 0,
        "slot": "4",
        "type": "t_string_storage"
      },
      {
        "astId": 4373,
        "contract": "contracts/BitrielToken.sol:BitrielToken",
        "label": "_nonces",
        "offset": 0,
        "slot": "5",
        "type": "t_mapping(t_address,t_struct(Counter)4880_storage)"
      },
      {
        "astId": 3702,
        "contract": "contracts/BitrielToken.sol:BitrielToken",
        "label": "_delegates",
        "offset": 0,
        "slot": "6",
        "type": "t_mapping(t_address,t_address)"
      },
      {
        "astId": 3708,
        "contract": "contracts/BitrielToken.sol:BitrielToken",
        "label": "_checkpoints",
        "offset": 0,
        "slot": "7",
        "type": "t_mapping(t_address,t_array(t_struct(Checkpoint)3693_storage)dyn_storage)"
      },
      {
        "astId": 3712,
        "contract": "contracts/BitrielToken.sol:BitrielToken",
        "label": "_totalSupplyCheckpoints",
        "offset": 0,
        "slot": "8",
        "type": "t_array(t_struct(Checkpoint)3693_storage)dyn_storage"
      },
      {
        "astId": 387,
        "contract": "contracts/BitrielToken.sol:BitrielToken",
        "label": "_owner",
        "offset": 0,
        "slot": "9",
        "type": "t_address"
      }
    ],
    "types": {
      "t_address": {
        "encoding": "inplace",
        "label": "address",
        "numberOfBytes": "20"
      },
      "t_array(t_struct(Checkpoint)3693_storage)dyn_storage": {
        "base": "t_struct(Checkpoint)3693_storage",
        "encoding": "dynamic_array",
        "label": "struct ERC20Votes.Checkpoint[]",
        "numberOfBytes": "32"
      },
      "t_mapping(t_address,t_address)": {
        "encoding": "mapping",
        "key": "t_address",
        "label": "mapping(address => address)",
        "numberOfBytes": "32",
        "value": "t_address"
      },
      "t_mapping(t_address,t_array(t_struct(Checkpoint)3693_storage)dyn_storage)": {
        "encoding": "mapping",
        "key": "t_address",
        "label": "mapping(address => struct ERC20Votes.Checkpoint[])",
        "numberOfBytes": "32",
        "value": "t_array(t_struct(Checkpoint)3693_storage)dyn_storage"
      },
      "t_mapping(t_address,t_mapping(t_address,t_uint256))": {
        "encoding": "mapping",
        "key": "t_address",
        "label": "mapping(address => mapping(address => uint256))",
        "numberOfBytes": "32",
        "value": "t_mapping(t_address,t_uint256)"
      },
      "t_mapping(t_address,t_struct(Counter)4880_storage)": {
        "encoding": "mapping",
        "key": "t_address",
        "label": "mapping(address => struct Counters.Counter)",
        "numberOfBytes": "32",
        "value": "t_struct(Counter)4880_storage"
      },
      "t_mapping(t_address,t_uint256)": {
        "encoding": "mapping",
        "key": "t_address",
        "label": "mapping(address => uint256)",
        "numberOfBytes": "32",
        "value": "t_uint256"
      },
      "t_string_storage": {
        "encoding": "bytes",
        "label": "string",
        "numberOfBytes": "32"
      },
      "t_struct(Checkpoint)3693_storage": {
        "encoding": "inplace",
        "label": "struct ERC20Votes.Checkpoint",
        "members": [
          {
            "astId": 3690,
            "contract": "contracts/BitrielToken.sol:BitrielToken",
            "label": "fromBlock",
            "offset": 0,
            "slot": "0",
            "type": "t_uint32"
          },
          {
            "astId": 3692,
            "contract": "contracts/BitrielToken.sol:BitrielToken",
            "label": "votes",
            "offset": 4,
            "slot": "0",
            "type": "t_uint224"
          }
        ],
        "numberOfBytes": "32"
      },
      "t_struct(Counter)4880_storage": {
        "encoding": "inplace",
        "label": "struct Counters.Counter",
        "members": [
          {
            "astId": 4879,
            "contract": "contracts/BitrielToken.sol:BitrielToken",
            "label": "_value",
            "offset": 0,
            "slot": "0",
            "type": "t_uint256"
          }
        ],
        "numberOfBytes": "32"
      },
      "t_uint224": {
        "encoding": "inplace",
        "label": "uint224",
        "numberOfBytes": "28"
      },
      "t_uint256": {
        "encoding": "inplace",
        "label": "uint256",
        "numberOfBytes": "32"
      },
      "t_uint32": {
        "encoding": "inplace",
        "label": "uint32",
        "numberOfBytes": "4"
      }
    }
  }
}